{
  "_format": "hh-sol-artifact-1",
  "contractName": "EventProxy",
  "sourceName": "contracts/EventProxy.sol",
  "abi": [
    {
      "inputs": [
        {
          "internalType": "address",
          "name": "_eventContract",
          "type": "address"
        },
        {
          "internalType": "address",
          "name": "_owner",
          "type": "address"
        },
        {
          "internalType": "address",
          "name": "_token",
          "type": "address"
        },
        {
          "components": [
            {
              "internalType": "string",
              "name": "eventID",
              "type": "string"
            },
            {
              "internalType": "enum IEvent.EventStatus",
              "name": "status",
              "type": "uint8"
            },
            {
              "internalType": "uint256",
              "name": "totalInvestors",
              "type": "uint256"
            },
            {
              "internalType": "uint256",
              "name": "totalInvested",
              "type": "uint256"
            },
            {
              "internalType": "bool",
              "name": "isClosed",
              "type": "bool"
            }
          ],
          "internalType": "struct IEvent.EventPool",
          "name": "_eventDetails",
          "type": "tuple"
        },
        {
          "components": [
            {
              "internalType": "uint256",
              "name": "gameID",
              "type": "uint256"
            },
            {
              "internalType": "uint256",
              "name": "season",
              "type": "uint256"
            },
            {
              "internalType": "enum IEvent.GameStatus",
              "name": "status",
              "type": "uint8"
            },
            {
              "internalType": "string",
              "name": "awayTeam",
              "type": "string"
            },
            {
              "internalType": "string",
              "name": "homeTeam",
              "type": "string"
            },
            {
              "internalType": "uint256",
              "name": "awayTeamID",
              "type": "uint256"
            },
            {
              "internalType": "uint256",
              "name": "homeTeamID",
              "type": "uint256"
            },
            {
              "internalType": "bool",
              "name": "isClosed",
              "type": "bool"
            }
          ],
          "internalType": "struct IEvent.Game[]",
          "name": "_games",
          "type": "tuple[]"
        }
      ],
      "stateMutability": "nonpayable",
      "type": "constructor"
    },
    {
      "stateMutability": "nonpayable",
      "type": "fallback"
    },
    {
      "inputs": [],
      "name": "eventContract",
      "outputs": [
        {
          "internalType": "address",
          "name": "",
          "type": "address"
        }
      ],
      "stateMutability": "view",
      "type": "function"
    },
    {
      "inputs": [],
      "name": "eventDetails",
      "outputs": [
        {
          "internalType": "string",
          "name": "eventID",
          "type": "string"
        },
        {
          "internalType": "enum IEvent.EventStatus",
          "name": "status",
          "type": "uint8"
        },
        {
          "internalType": "uint256",
          "name": "totalInvestors",
          "type": "uint256"
        },
        {
          "internalType": "uint256",
          "name": "totalInvested",
          "type": "uint256"
        },
        {
          "internalType": "bool",
          "name": "isClosed",
          "type": "bool"
        }
      ],
      "stateMutability": "view",
      "type": "function"
    },
    {
      "inputs": [
        {
          "internalType": "uint256",
          "name": "",
          "type": "uint256"
        }
      ],
      "name": "games",
      "outputs": [
        {
          "internalType": "uint256",
          "name": "gameID",
          "type": "uint256"
        },
        {
          "internalType": "uint256",
          "name": "season",
          "type": "uint256"
        },
        {
          "internalType": "enum IEvent.GameStatus",
          "name": "status",
          "type": "uint8"
        },
        {
          "internalType": "string",
          "name": "awayTeam",
          "type": "string"
        },
        {
          "internalType": "string",
          "name": "homeTeam",
          "type": "string"
        },
        {
          "internalType": "uint256",
          "name": "awayTeamID",
          "type": "uint256"
        },
        {
          "internalType": "uint256",
          "name": "homeTeamID",
          "type": "uint256"
        },
        {
          "internalType": "bool",
          "name": "isClosed",
          "type": "bool"
        }
      ],
      "stateMutability": "view",
      "type": "function"
    },
    {
      "inputs": [
        {
          "internalType": "address",
          "name": "",
          "type": "address"
        }
      ],
      "name": "investors",
      "outputs": [
        {
          "internalType": "bool",
          "name": "",
          "type": "bool"
        }
      ],
      "stateMutability": "view",
      "type": "function"
    },
    {
      "inputs": [],
      "name": "owner",
      "outputs": [
        {
          "internalType": "address",
          "name": "",
          "type": "address"
        }
      ],
      "stateMutability": "view",
      "type": "function"
    },
    {
      "inputs": [],
      "name": "token",
      "outputs": [
        {
          "internalType": "address",
          "name": "",
          "type": "address"
        }
      ],
      "stateMutability": "view",
      "type": "function"
    },
    {
      "stateMutability": "payable",
      "type": "receive"
    }
  ],
  "bytecode": "0x608060405234801561001057600080fd5b5060405161157a38038061157a833981810160405281019061003291906107a9565b846000806101000a81548173ffffffffffffffffffffffffffffffffffffffff021916908373ffffffffffffffffffffffffffffffffffffffff16021790555083600160006101000a81548173ffffffffffffffffffffffffffffffffffffffff021916908373ffffffffffffffffffffffffffffffffffffffff16021790555082600260006101000a81548173ffffffffffffffffffffffffffffffffffffffff021916908373ffffffffffffffffffffffffffffffffffffffff160217905550816003600082015181600001908161010c9190610a73565b5060208201518160010160006101000a81548160ff0219169083600481111561013857610137610b45565b5b0217905550604082015181600201556060820151816003015560808201518160040160006101000a81548160ff02191690831515021790555090505060005b815181101561027957600882828151811061019557610194610b74565b5b60200260200101519080600181540180825580915050600190039060005260206000209060080201600090919091909150600082015181600001556020820151816001015560408201518160020160006101000a81548160ff0219169083600a81111561020557610204610b45565b5b0217905550606082015181600301908161021f9190610a73565b5060808201518160040190816102359190610a73565b5060a0820151816005015560c0820151816006015560e08201518160070160006101000a81548160ff02191690831515021790555050508080600101915050610177565b505050505050610ba3565b6000604051905090565b600080fd5b600080fd5b600073ffffffffffffffffffffffffffffffffffffffff82169050919050565b60006102c382610298565b9050919050565b6102d3816102b8565b81146102de57600080fd5b50565b6000815190506102f0816102ca565b92915050565b600080fd5b6000601f19601f8301169050919050565b7f4e487b7100000000000000000000000000000000000000000000000000000000600052604160045260246000fd5b610344826102fb565b810181811067ffffffffffffffff821117156103635761036261030c565b5b80604052505050565b6000610376610284565b9050610382828261033b565b919050565b600080fd5b600080fd5b600080fd5b600067ffffffffffffffff8211156103b1576103b061030c565b5b6103ba826102fb565b9050602081019050919050565b60005b838110156103e55780820151818401526020810190506103ca565b60008484015250505050565b60006104046103ff84610396565b61036c565b9050828152602081018484840111156104205761041f610391565b5b61042b8482856103c7565b509392505050565b600082601f8301126104485761044761038c565b5b81516104588482602086016103f1565b91505092915050565b6005811061046e57600080fd5b50565b60008151905061048081610461565b92915050565b6000819050919050565b61049981610486565b81146104a457600080fd5b50565b6000815190506104b681610490565b92915050565b60008115159050919050565b6104d1816104bc565b81146104dc57600080fd5b50565b6000815190506104ee816104c8565b92915050565b600060a0828403121561050a576105096102f6565b5b61051460a061036c565b9050600082015167ffffffffffffffff81111561053457610533610387565b5b61054084828501610433565b600083015250602061055484828501610471565b6020830152506040610568848285016104a7565b604083015250606061057c848285016104a7565b6060830152506080610590848285016104df565b60808301525092915050565b600067ffffffffffffffff8211156105b7576105b661030c565b5b602082029050602081019050919050565b600080fd5b600b81106105da57600080fd5b50565b6000815190506105ec816105cd565b92915050565b60006101008284031215610609576106086102f6565b5b61061461010061036c565b90506000610624848285016104a7565b6000830152506020610638848285016104a7565b602083015250604061064c848285016105dd565b604083015250606082015167ffffffffffffffff8111156106705761066f610387565b5b61067c84828501610433565b606083015250608082015167ffffffffffffffff8111156106a05761069f610387565b5b6106ac84828501610433565b60808301525060a06106c0848285016104a7565b60a08301525060c06106d4848285016104a7565b60c08301525060e06106e8848285016104df565b60e08301525092915050565b60006107076107028461059c565b61036c565b9050808382526020820190506020840283018581111561072a576107296105c8565b5b835b8181101561077157805167ffffffffffffffff81111561074f5761074e61038c565b5b80860161075c89826105f2565b8552602085019450505060208101905061072c565b5050509392505050565b600082601f8301126107905761078f61038c565b5b81516107a08482602086016106f4565b91505092915050565b600080600080600060a086880312156107c5576107c461028e565b5b60006107d3888289016102e1565b95505060206107e4888289016102e1565b94505060406107f5888289016102e1565b935050606086015167ffffffffffffffff81111561081657610815610293565b5b610822888289016104f4565b925050608086015167ffffffffffffffff81111561084357610842610293565b5b61084f8882890161077b565b9150509295509295909350565b600081519050919050565b7f4e487b7100000000000000000000000000000000000000000000000000000000600052602260045260246000fd5b600060028204905060018216806108ae57607f821691505b6020821081036108c1576108c0610867565b5b50919050565b60008190508160005260206000209050919050565b60006020601f8301049050919050565b600082821b905092915050565b6000600883026109297fffffffffffffffffffffffffffffffffffffffffffffffffffffffffffffffff826108ec565b61093386836108ec565b95508019841693508086168417925050509392505050565b6000819050919050565b600061097061096b61096684610486565b61094b565b610486565b9050919050565b6000819050919050565b61098a83610955565b61099e61099682610977565b8484546108f9565b825550505050565b600090565b6109b36109a6565b6109be818484610981565b505050565b5b818110156109e2576109d76000826109ab565b6001810190506109c4565b5050565b601f821115610a27576109f8816108c7565b610a01846108dc565b81016020851015610a10578190505b610a24610a1c856108dc565b8301826109c3565b50505b505050565b600082821c905092915050565b6000610a4a60001984600802610a2c565b1980831691505092915050565b6000610a638383610a39565b9150826002028217905092915050565b610a7c8261085c565b67ffffffffffffffff811115610a9557610a9461030c565b5b610a9f8254610896565b610aaa8282856109e6565b600060209050601f831160018114610add5760008415610acb578287015190505b610ad58582610a57565b865550610b3d565b601f198416610aeb866108c7565b60005b82811015610b1357848901518255600182019150602085019450602081019050610aee565b86831015610b305784890151610b2c601f891682610a39565b8355505b6001600288020188555050505b505050505050565b7f4e487b7100000000000000000000000000000000000000000000000000000000600052602160045260246000fd5b7f4e487b7100000000000000000000000000000000000000000000000000000000600052603260045260246000fd5b6109c880610bb26000396000f3fe6080604052600436106100595760003560e01c8063117a5b90146100775780636f7bc9be146100bb5780638da5cb5b146100f8578063e274fd2414610123578063f1386cd61461014e578063fc0c546a1461017d57610060565b3661006057005b34801561006c57600080fd5b506100756101a8565b005b34801561008357600080fd5b5061009e60048036038101906100999190610594565b6101c2565b6040516100b29897969594939291906106f2565b60405180910390f35b3480156100c757600080fd5b506100e260048036038101906100dd91906107dc565b610344565b6040516100ef9190610809565b60405180910390f35b34801561010457600080fd5b5061010d610364565b60405161011a9190610833565b60405180910390f35b34801561012f57600080fd5b5061013861038a565b6040516101459190610833565b60405180910390f35b34801561015a57600080fd5b506101636103ae565b604051610174959493929190610896565b60405180910390f35b34801561018957600080fd5b50610192610474565b60405161019f9190610833565b60405180910390f35b6101b061049a565b6101c06101bb61049c565b610533565b565b600881815481106101d257600080fd5b90600052602060002090600802016000915090508060000154908060010154908060020160009054906101000a900460ff16908060030180546102149061091f565b80601f01602080910402602001604051908101604052809291908181526020018280546102409061091f565b801561028d5780601f106102625761010080835404028352916020019161028d565b820191906000526020600020905b81548152906001019060200180831161027057829003601f168201915b5050505050908060040180546102a29061091f565b80601f01602080910402602001604051908101604052809291908181526020018280546102ce9061091f565b801561031b5780601f106102f05761010080835404028352916020019161031b565b820191906000526020600020905b8154815290600101906020018083116102fe57829003601f168201915b5050505050908060050154908060060154908060070160009054906101000a900460ff16905088565b60096020528060005260406000206000915054906101000a900460ff1681565b600160009054906101000a900473ffffffffffffffffffffffffffffffffffffffff1681565b60008054906101000a900473ffffffffffffffffffffffffffffffffffffffff1681565b60038060000180546103bf9061091f565b80601f01602080910402602001604051908101604052809291908181526020018280546103eb9061091f565b80156104385780601f1061040d57610100808354040283529160200191610438565b820191906000526020600020905b81548152906001019060200180831161041b57829003601f168201915b5050505050908060010160009054906101000a900460ff16908060020154908060030154908060040160009054906101000a900460ff16905085565b600260009054906101000a900473ffffffffffffffffffffffffffffffffffffffff1681565b565b60008060009054906101000a900473ffffffffffffffffffffffffffffffffffffffff1673ffffffffffffffffffffffffffffffffffffffff16636696f93d6040518163ffffffff1660e01b8152600401602060405180830381865afa15801561050a573d6000803e3d6000fd5b505050506040513d601f19601f8201168201806040525081019061052e9190610965565b905090565b3660008037600080366000845af43d6000803e8060008114610554573d6000f35b3d6000fd5b600080fd5b6000819050919050565b6105718161055e565b811461057c57600080fd5b50565b60008135905061058e81610568565b92915050565b6000602082840312156105aa576105a9610559565b5b60006105b88482850161057f565b91505092915050565b6105ca8161055e565b82525050565b7f4e487b7100000000000000000000000000000000000000000000000000000000600052602160045260246000fd5b600b81106106105761060f6105d0565b5b50565b6000819050610621826105ff565b919050565b600061063182610613565b9050919050565b61064181610626565b82525050565b600081519050919050565b600082825260208201905092915050565b60005b83811015610681578082015181840152602081019050610666565b60008484015250505050565b6000601f19601f8301169050919050565b60006106a982610647565b6106b38185610652565b93506106c3818560208601610663565b6106cc8161068d565b840191505092915050565b60008115159050919050565b6106ec816106d7565b82525050565b600061010082019050610708600083018b6105c1565b610715602083018a6105c1565b6107226040830189610638565b8181036060830152610734818861069e565b90508181036080830152610748818761069e565b905061075760a08301866105c1565b61076460c08301856105c1565b61077160e08301846106e3565b9998505050505050505050565b600073ffffffffffffffffffffffffffffffffffffffff82169050919050565b60006107a98261077e565b9050919050565b6107b98161079e565b81146107c457600080fd5b50565b6000813590506107d6816107b0565b92915050565b6000602082840312156107f2576107f1610559565b5b6000610800848285016107c7565b91505092915050565b600060208201905061081e60008301846106e3565b92915050565b61082d8161079e565b82525050565b60006020820190506108486000830184610824565b92915050565b6005811061085f5761085e6105d0565b5b50565b60008190506108708261084e565b919050565b600061088082610862565b9050919050565b61089081610875565b82525050565b600060a08201905081810360008301526108b0818861069e565b90506108bf6020830187610887565b6108cc60408301866105c1565b6108d960608301856105c1565b6108e660808301846106e3565b9695505050505050565b7f4e487b7100000000000000000000000000000000000000000000000000000000600052602260045260246000fd5b6000600282049050600182168061093757607f821691505b60208210810361094a576109496108f0565b5b50919050565b60008151905061095f816107b0565b92915050565b60006020828403121561097b5761097a610559565b5b600061098984828501610950565b9150509291505056fea26469706673582212206c51578319ee4f732ec1932a1af787335794cab879121307bf55ffca1a7f2b1364736f6c634300081c0033",
  "linkReferences": {},
  "deployedLinkReferences": {}
}