{
  "_format": "hh-sol-artifact-1",
  "contractName": "EventImplementation",
  "sourceName": "contracts/EventImplementation.sol",
  "abi": [
    {
      "anonymous": false,
      "inputs": [
        {
          "indexed": true,
          "internalType": "address",
          "name": "investor",
          "type": "address"
        },
        {
          "indexed": false,
          "internalType": "uint256",
          "name": "gameID",
          "type": "uint256"
        },
        {
          "indexed": false,
          "internalType": "uint256",
          "name": "amount",
          "type": "uint256"
        },
        {
          "indexed": false,
          "internalType": "string",
          "name": "payloadSecret",
          "type": "string"
        }
      ],
      "name": "Invest",
      "type": "event"
    },
    {
      "anonymous": false,
      "inputs": [
        {
          "indexed": false,
          "internalType": "uint256",
          "name": "gameID",
          "type": "uint256"
        },
        {
          "indexed": true,
          "internalType": "address",
          "name": "recipient",
          "type": "address"
        },
        {
          "indexed": false,
          "internalType": "uint256",
          "name": "amount",
          "type": "uint256"
        }
      ],
      "name": "Refund",
      "type": "event"
    },
    {
      "anonymous": false,
      "inputs": [
        {
          "indexed": true,
          "internalType": "address",
          "name": "recipient",
          "type": "address"
        },
        {
          "indexed": false,
          "internalType": "uint256",
          "name": "amount",
          "type": "uint256"
        }
      ],
      "name": "RewardDistributed",
      "type": "event"
    },
    {
      "inputs": [
        {
          "internalType": "address[]",
          "name": "recipients",
          "type": "address[]"
        },
        {
          "internalType": "uint256[]",
          "name": "amounts",
          "type": "uint256[]"
        }
      ],
      "name": "distributeReward",
      "outputs": [
        {
          "internalType": "bool",
          "name": "",
          "type": "bool"
        }
      ],
      "stateMutability": "nonpayable",
      "type": "function"
    },
    {
      "inputs": [],
      "name": "eventContract",
      "outputs": [
        {
          "internalType": "address",
          "name": "",
          "type": "address"
        }
      ],
      "stateMutability": "view",
      "type": "function"
    },
    {
      "inputs": [],
      "name": "eventDetails",
      "outputs": [
        {
          "internalType": "string",
          "name": "eventID",
          "type": "string"
        },
        {
          "internalType": "enum IEvent.EventStatus",
          "name": "status",
          "type": "uint8"
        },
        {
          "internalType": "uint256",
          "name": "totalInvestors",
          "type": "uint256"
        },
        {
          "internalType": "uint256",
          "name": "totalInvested",
          "type": "uint256"
        },
        {
          "internalType": "bool",
          "name": "isClosed",
          "type": "bool"
        }
      ],
      "stateMutability": "view",
      "type": "function"
    },
    {
      "inputs": [
        {
          "internalType": "uint256",
          "name": "",
          "type": "uint256"
        }
      ],
      "name": "games",
      "outputs": [
        {
          "internalType": "uint256",
          "name": "gameID",
          "type": "uint256"
        },
        {
          "internalType": "uint256",
          "name": "season",
          "type": "uint256"
        },
        {
          "internalType": "enum IEvent.GameStatus",
          "name": "status",
          "type": "uint8"
        },
        {
          "internalType": "string",
          "name": "awayTeam",
          "type": "string"
        },
        {
          "internalType": "string",
          "name": "homeTeam",
          "type": "string"
        },
        {
          "internalType": "uint256",
          "name": "awayTeamID",
          "type": "uint256"
        },
        {
          "internalType": "uint256",
          "name": "homeTeamID",
          "type": "uint256"
        },
        {
          "internalType": "bool",
          "name": "isClosed",
          "type": "bool"
        }
      ],
      "stateMutability": "view",
      "type": "function"
    },
    {
      "inputs": [
        {
          "internalType": "uint256",
          "name": "_gameID",
          "type": "uint256"
        },
        {
          "internalType": "uint256",
          "name": "_amount",
          "type": "uint256"
        },
        {
          "internalType": "string",
          "name": "_payloadSecret",
          "type": "string"
        }
      ],
      "name": "invest",
      "outputs": [
        {
          "internalType": "bool",
          "name": "",
          "type": "bool"
        }
      ],
      "stateMutability": "nonpayable",
      "type": "function"
    },
    {
      "inputs": [
        {
          "internalType": "address",
          "name": "",
          "type": "address"
        }
      ],
      "name": "investors",
      "outputs": [
        {
          "internalType": "bool",
          "name": "",
          "type": "bool"
        }
      ],
      "stateMutability": "view",
      "type": "function"
    },
    {
      "inputs": [],
      "name": "owner",
      "outputs": [
        {
          "internalType": "address",
          "name": "",
          "type": "address"
        }
      ],
      "stateMutability": "view",
      "type": "function"
    },
    {
      "inputs": [
        {
          "internalType": "uint256",
          "name": "_gameID",
          "type": "uint256"
        },
        {
          "internalType": "address[]",
          "name": "recipients",
          "type": "address[]"
        },
        {
          "internalType": "uint256[]",
          "name": "amounts",
          "type": "uint256[]"
        }
      ],
      "name": "refund",
      "outputs": [
        {
          "internalType": "bool",
          "name": "",
          "type": "bool"
        }
      ],
      "stateMutability": "nonpayable",
      "type": "function"
    },
    {
      "inputs": [],
      "name": "token",
      "outputs": [
        {
          "internalType": "address",
          "name": "",
          "type": "address"
        }
      ],
      "stateMutability": "view",
      "type": "function"
    },
    {
      "inputs": [
        {
          "internalType": "enum IEvent.EventStatus",
          "name": "_status",
          "type": "uint8"
        }
      ],
      "name": "updateEventPoolStatus",
      "outputs": [],
      "stateMutability": "nonpayable",
      "type": "function"
    },
    {
      "inputs": [
        {
          "internalType": "uint256",
          "name": "_gameID",
          "type": "uint256"
        },
        {
          "internalType": "enum IEvent.GameStatus",
          "name": "_status",
          "type": "uint8"
        }
      ],
      "name": "updateGameStatus",
      "outputs": [],
      "stateMutability": "nonpayable",
      "type": "function"
    }
  ],
  "bytecode": "0x6080604052348015600f57600080fd5b50612d578061001f6000396000f3fe608060405234801561001057600080fd5b50600436106100a95760003560e01c80638da5cb5b116100715780638da5cb5b14610191578063a037cbe7146101af578063e274fd24146101cb578063f0e49546146101e9578063f1386cd614610219578063fc0c546a1461023b576100a9565b8063117a5b90146100ae5780636f7bc9be146100e557806373c5550f14610115578063822b096e1461014557806389aceef014610175575b600080fd5b6100c860048036038101906100c39190611db7565b610259565b6040516100dc989796959493929190611f15565b60405180910390f35b6100ff60048036038101906100fa9190611fff565b6103db565b60405161010c919061202c565b60405180910390f35b61012f600480360381019061012a919061217c565b6103fb565b60405161013c919061202c565b60405180910390f35b61015f600480360381019061015a91906122a1565b610ab1565b60405161016c919061202c565b60405180910390f35b61018f600480360381019061018a9190612347565b610ef4565b005b6101996111a9565b6040516101a69190612396565b60405180910390f35b6101c960048036038101906101c491906123d6565b6111cf565b005b6101d3611375565b6040516101e09190612396565b60405180910390f35b61020360048036038101906101fe9190612403565b611399565b604051610210919061202c565b60405180910390f35b610221611b69565b6040516102329594939291906124e0565b60405180910390f35b610243611c2f565b6040516102509190612396565b60405180910390f35b6008818154811061026957600080fd5b90600052602060002090600802016000915090508060000154908060010154908060020160009054906101000a900460ff16908060030180546102ab90612569565b80601f01602080910402602001604051908101604052809291908181526020018280546102d790612569565b80156103245780601f106102f957610100808354040283529160200191610324565b820191906000526020600020905b81548152906001019060200180831161030757829003601f168201915b50505050509080600401805461033990612569565b80601f016020809104026020016040519081016040528092919081815260200182805461036590612569565b80156103b25780601f10610387576101008083540402835291602001916103b2565b820191906000526020600020905b81548152906001019060200180831161039557829003601f168201915b5050505050908060050154908060060154908060070160009054906101000a900460ff16905088565b60096020528060005260406000206000915054906101000a900460ff1681565b6000610405611c55565b73ffffffffffffffffffffffffffffffffffffffff1663ceaf026b336040518263ffffffff1660e01b815260040161043d9190612396565b602060405180830381865afa15801561045a573d6000803e3d6000fd5b505050506040513d601f19601f8201168201806040525081019061047e91906125c6565b6104bd576040517f08c379a00000000000000000000000000000000000000000000000000000000081526004016104b490612665565b60405180910390fd5b60006104c885611cec565b90507fffffffffffffffffffffffffffffffffffffffffffffffffffffffffffffffff810361052c576040517f08c379a0000000000000000000000000000000000000000000000000000000008152600401610523906126d1565b60405180910390fd5b600060088281548110610542576105416126f1565b5b90600052602060002090600802016040518061010001604052908160008201548152602001600182015481526020016002820160009054906101000a900460ff16600a81111561059557610594611df3565b5b600a8111156105a7576105a6611df3565b5b81526020016003820180546105bb90612569565b80601f01602080910402602001604051908101604052809291908181526020018280546105e790612569565b80156106345780601f1061060957610100808354040283529160200191610634565b820191906000526020600020905b81548152906001019060200180831161061757829003601f168201915b5050505050815260200160048201805461064d90612569565b80601f016020809104026020016040519081016040528092919081815260200182805461067990612569565b80156106c65780601f1061069b576101008083540402835291602001916106c6565b820191906000526020600020905b8154815290600101906020018083116106a957829003601f168201915b5050505050815260200160058201548152602001600682015481526020016007820160009054906101000a900460ff16151515158152505090506001600481111561071457610713611df3565b5b600360010160009054906101000a900460ff16600481111561073957610738611df3565b5b14610779576040517f08c379a00000000000000000000000000000000000000000000000000000000081526004016107709061276c565b60405180910390fd5b6000600a81111561078d5761078c611df3565b5b8160400151600a8111156107a4576107a3611df3565b5b146107e4576040517f08c379a00000000000000000000000000000000000000000000000000000000081526004016107db906127d8565b60405180910390fd5b60001515600360040160009054906101000a900460ff1615151461083d576040517f08c379a000000000000000000000000000000000000000000000000000000000815260040161083490612844565b60405180910390fd5b600015158160e00151151514610888576040517f08c379a000000000000000000000000000000000000000000000000000000000815260040161087f906128b0565b60405180910390fd5b600260009054906101000a900473ffffffffffffffffffffffffffffffffffffffff1673ffffffffffffffffffffffffffffffffffffffff166323b872dd3330886040518463ffffffff1660e01b81526004016108e7939291906128d0565b6020604051808303816000875af1158015610906573d6000803e3d6000fd5b505050506040513d601f19601f8201168201806040525081019061092a91906125c6565b610969576040517f08c379a000000000000000000000000000000000000000000000000000000000815260040161096090612953565b60405180910390fd5b60001515600960003373ffffffffffffffffffffffffffffffffffffffff1673ffffffffffffffffffffffffffffffffffffffff16815260200190815260200160002060009054906101000a900460ff16151503610a37576001600960003373ffffffffffffffffffffffffffffffffffffffff1673ffffffffffffffffffffffffffffffffffffffff16815260200190815260200160002060006101000a81548160ff021916908315150217905550600160036002016000828254610a2f91906129a2565b925050819055505b84600380016000828254610a4b91906129a2565b925050819055503373ffffffffffffffffffffffffffffffffffffffff167f4755ee2bccd43cbfec5e57467aeafc50f90e4898c0ead449a7628d82af2416d3878787604051610a9c939291906129d6565b60405180910390a26001925050509392505050565b60008060009054906101000a900473ffffffffffffffffffffffffffffffffffffffff1673ffffffffffffffffffffffffffffffffffffffff16638da5cb5b6040518163ffffffff1660e01b8152600401602060405180830381865afa158015610b1f573d6000803e3d6000fd5b505050506040513d601f19601f82011682018060405250810190610b439190612a29565b73ffffffffffffffffffffffffffffffffffffffff163373ffffffffffffffffffffffffffffffffffffffff1614610bb0576040517f08c379a0000000000000000000000000000000000000000000000000000000008152600401610ba790612aa2565b60405180910390fd5b828290508585905014610bf8576040517f08c379a0000000000000000000000000000000000000000000000000000000008152600401610bef90612b0e565b60405180910390fd5b600080600090505b84849050811015610c3f57848482818110610c1e57610c1d6126f1565b5b9050602002013582610c3091906129a2565b91508080600101915050610c00565b5080600260009054906101000a900473ffffffffffffffffffffffffffffffffffffffff1673ffffffffffffffffffffffffffffffffffffffff166370a08231306040518263ffffffff1660e01b8152600401610c9c9190612396565b602060405180830381865afa158015610cb9573d6000803e3d6000fd5b505050506040513d601f19601f82011682018060405250810190610cdd9190612b43565b1015610d1e576040517f08c379a0000000000000000000000000000000000000000000000000000000008152600401610d1590612bbc565b60405180910390fd5b60005b86869050811015610ee657600260009054906101000a900473ffffffffffffffffffffffffffffffffffffffff1673ffffffffffffffffffffffffffffffffffffffff1663a9059cbb888884818110610d7d57610d7c6126f1565b5b9050602002016020810190610d929190611fff565b878785818110610da557610da46126f1565b5b905060200201356040518363ffffffff1660e01b8152600401610dc9929190612bdc565b6020604051808303816000875af1158015610de8573d6000803e3d6000fd5b505050506040513d601f19601f82011682018060405250810190610e0c91906125c6565b610e4b576040517f08c379a0000000000000000000000000000000000000000000000000000000008152600401610e4290612953565b60405180910390fd5b868682818110610e5e57610e5d6126f1565b5b9050602002016020810190610e739190611fff565b73ffffffffffffffffffffffffffffffffffffffff167fe34918ff1c7084970068b53fd71ad6d8b04e9f15d3886cbf006443e6cdc52ea6868684818110610ebd57610ebc6126f1565b5b90506020020135604051610ed19190612c05565b60405180910390a28080600101915050610d21565b506001915050949350505050565b60008054906101000a900473ffffffffffffffffffffffffffffffffffffffff1673ffffffffffffffffffffffffffffffffffffffff16638da5cb5b6040518163ffffffff1660e01b8152600401602060405180830381865afa158015610f5f573d6000803e3d6000fd5b505050506040513d601f19601f82011682018060405250810190610f839190612a29565b73ffffffffffffffffffffffffffffffffffffffff163373ffffffffffffffffffffffffffffffffffffffff1614610ff0576040517f08c379a0000000000000000000000000000000000000000000000000000000008152600401610fe790612aa2565b60405180910390fd5b6000610ffb83611cec565b90507fffffffffffffffffffffffffffffffffffffffffffffffffffffffffffffffff810361105f576040517f08c379a0000000000000000000000000000000000000000000000000000000008152600401611056906126d1565b60405180910390fd5b600a8081111561107257611071611df3565b5b82600a81111561108557611084611df3565b5b14806110b557506007600a8111156110a05761109f611df3565b5b82600a8111156110b3576110b2611df3565b5b145b806110e457506008600a8111156110cf576110ce611df3565b5b82600a8111156110e2576110e1611df3565b5b145b8061111357506009600a8111156110fe576110fd611df3565b5b82600a81111561111157611110611df3565b5b145b156111575760016008828154811061112e5761112d6126f1565b5b906000526020600020906008020160070160006101000a81548160ff0219169083151502179055505b816008828154811061116c5761116b6126f1565b5b906000526020600020906008020160020160006101000a81548160ff0219169083600a81111561119f5761119e611df3565b5b0217905550505050565b600160009054906101000a900473ffffffffffffffffffffffffffffffffffffffff1681565b60008054906101000a900473ffffffffffffffffffffffffffffffffffffffff1673ffffffffffffffffffffffffffffffffffffffff16638da5cb5b6040518163ffffffff1660e01b8152600401602060405180830381865afa15801561123a573d6000803e3d6000fd5b505050506040513d601f19601f8201168201806040525081019061125e9190612a29565b73ffffffffffffffffffffffffffffffffffffffff163373ffffffffffffffffffffffffffffffffffffffff16146112cb576040517f08c379a00000000000000000000000000000000000000000000000000000000081526004016112c290612aa2565b60405180910390fd5b80600360010160006101000a81548160ff021916908360048111156112f3576112f2611df3565b5b02179055506003600481111561130c5761130b611df3565b5b81600481111561131f5761131e611df3565b5b148061134e575060048081111561133957611338611df3565b5b81600481111561134c5761134b611df3565b5b145b15611372576001600360040160006101000a81548160ff0219169083151502179055505b50565b60008054906101000a900473ffffffffffffffffffffffffffffffffffffffff1681565b60008060009054906101000a900473ffffffffffffffffffffffffffffffffffffffff1673ffffffffffffffffffffffffffffffffffffffff16638da5cb5b6040518163ffffffff1660e01b8152600401602060405180830381865afa158015611407573d6000803e3d6000fd5b505050506040513d601f19601f8201168201806040525081019061142b9190612a29565b73ffffffffffffffffffffffffffffffffffffffff163373ffffffffffffffffffffffffffffffffffffffff1614611498576040517f08c379a000000000000000000000000000000000000000000000000000000000815260040161148f90612aa2565b60405180910390fd5b600060086114a588611cec565b815481106114b6576114b56126f1565b5b90600052602060002090600802016040518061010001604052908160008201548152602001600182015481526020016002820160009054906101000a900460ff16600a81111561150957611508611df3565b5b600a81111561151b5761151a611df3565b5b815260200160038201805461152f90612569565b80601f016020809104026020016040519081016040528092919081815260200182805461155b90612569565b80156115a85780601f1061157d576101008083540402835291602001916115a8565b820191906000526020600020905b81548152906001019060200180831161158b57829003601f168201915b505050505081526020016004820180546115c190612569565b80601f01602080910402602001604051908101604052809291908181526020018280546115ed90612569565b801561163a5780601f1061160f5761010080835404028352916020019161163a565b820191906000526020600020905b81548152906001019060200180831161161d57829003601f168201915b5050505050815260200160058201548152602001600682015481526020016007820160009054906101000a900460ff161515151581525050905060008160000151036116bb576040517f08c379a00000000000000000000000000000000000000000000000000000000081526004016116b2906126d1565b60405180910390fd5b6004600a8111156116cf576116ce611df3565b5b8160400151600a8111156116e6576116e5611df3565b5b148061171a57506005600a81111561170157611700611df3565b5b8160400151600a81111561171857611717611df3565b5b145b8061174d57506006600a81111561173457611733611df3565b5b8160400151600a81111561174b5761174a611df3565b5b145b8061178057506007600a81111561176757611766611df3565b5b8160400151600a81111561177e5761177d611df3565b5b145b806117b357506008600a81111561179a57611799611df3565b5b8160400151600a8111156117b1576117b0611df3565b5b145b806117e657506009600a8111156117cd576117cc611df3565b5b8160400151600a8111156117e4576117e3611df3565b5b145b611825576040517f08c379a000000000000000000000000000000000000000000000000000000000815260040161181c90612c6c565b60405180910390fd5b83839050868690501461186d576040517f08c379a000000000000000000000000000000000000000000000000000000000815260040161186490612b0e565b60405180910390fd5b6000805b858590508110156118b05785858281811061188f5761188e6126f1565b5b90506020020135826118a191906129a2565b91508080600101915050611871565b5080600260009054906101000a900473ffffffffffffffffffffffffffffffffffffffff1673ffffffffffffffffffffffffffffffffffffffff166370a08231306040518263ffffffff1660e01b815260040161190d9190612396565b602060405180830381865afa15801561192a573d6000803e3d6000fd5b505050506040513d601f19601f8201168201806040525081019061194e9190612b43565b101561198f576040517f08c379a000000000000000000000000000000000000000000000000000000000815260040161198690612cd8565b60405180910390fd5b60005b87879050811015611b5957600260009054906101000a900473ffffffffffffffffffffffffffffffffffffffff1673ffffffffffffffffffffffffffffffffffffffff1663a9059cbb8989848181106119ee576119ed6126f1565b5b9050602002016020810190611a039190611fff565b888885818110611a1657611a156126f1565b5b905060200201356040518363ffffffff1660e01b8152600401611a3a929190612bdc565b6020604051808303816000875af1158015611a59573d6000803e3d6000fd5b505050506040513d601f19601f82011682018060405250810190611a7d91906125c6565b611abc576040517f08c379a0000000000000000000000000000000000000000000000000000000008152600401611ab390612953565b60405180910390fd5b878782818110611acf57611ace6126f1565b5b9050602002016020810190611ae49190611fff565b73ffffffffffffffffffffffffffffffffffffffff167f21e12a7cad0da5928167e1084ea4d5fdf8d9af66657a2543a9ac76a0ca0814778a888885818110611b2f57611b2e6126f1565b5b90506020020135604051611b44929190612cf8565b60405180910390a28080600101915050611992565b5060019250505095945050505050565b6003806000018054611b7a90612569565b80601f0160208091040260200160405190810160405280929190818152602001828054611ba690612569565b8015611bf35780601f10611bc857610100808354040283529160200191611bf3565b820191906000526020600020905b815481529060010190602001808311611bd657829003601f168201915b5050505050908060010160009054906101000a900460ff16908060020154908060030154908060040160009054906101000a900460ff16905085565b600260009054906101000a900473ffffffffffffffffffffffffffffffffffffffff1681565b60008060009054906101000a900473ffffffffffffffffffffffffffffffffffffffff1673ffffffffffffffffffffffffffffffffffffffff1663c5c036996040518163ffffffff1660e01b8152600401602060405180830381865afa158015611cc3573d6000803e3d6000fd5b505050506040513d601f19601f82011682018060405250810190611ce79190612a29565b905090565b600080600090505b600880549050811215611d43578260088281548110611d1657611d156126f1565b5b90600052602060002090600802016000015403611d365780915050611d68565b8080600101915050611cf4565b507fffffffffffffffffffffffffffffffffffffffffffffffffffffffffffffffff90505b919050565b6000604051905090565b600080fd5b600080fd5b6000819050919050565b611d9481611d81565b8114611d9f57600080fd5b50565b600081359050611db181611d8b565b92915050565b600060208284031215611dcd57611dcc611d77565b5b6000611ddb84828501611da2565b91505092915050565b611ded81611d81565b82525050565b7f4e487b7100000000000000000000000000000000000000000000000000000000600052602160045260246000fd5b600b8110611e3357611e32611df3565b5b50565b6000819050611e4482611e22565b919050565b6000611e5482611e36565b9050919050565b611e6481611e49565b82525050565b600081519050919050565b600082825260208201905092915050565b60005b83811015611ea4578082015181840152602081019050611e89565b60008484015250505050565b6000601f19601f8301169050919050565b6000611ecc82611e6a565b611ed68185611e75565b9350611ee6818560208601611e86565b611eef81611eb0565b840191505092915050565b60008115159050919050565b611f0f81611efa565b82525050565b600061010082019050611f2b600083018b611de4565b611f38602083018a611de4565b611f456040830189611e5b565b8181036060830152611f578188611ec1565b90508181036080830152611f6b8187611ec1565b9050611f7a60a0830186611de4565b611f8760c0830185611de4565b611f9460e0830184611f06565b9998505050505050505050565b600073ffffffffffffffffffffffffffffffffffffffff82169050919050565b6000611fcc82611fa1565b9050919050565b611fdc81611fc1565b8114611fe757600080fd5b50565b600081359050611ff981611fd3565b92915050565b60006020828403121561201557612014611d77565b5b600061202384828501611fea565b91505092915050565b60006020820190506120416000830184611f06565b92915050565b600080fd5b600080fd5b7f4e487b7100000000000000000000000000000000000000000000000000000000600052604160045260246000fd5b61208982611eb0565b810181811067ffffffffffffffff821117156120a8576120a7612051565b5b80604052505050565b60006120bb611d6d565b90506120c78282612080565b919050565b600067ffffffffffffffff8211156120e7576120e6612051565b5b6120f082611eb0565b9050602081019050919050565b82818337600083830152505050565b600061211f61211a846120cc565b6120b1565b90508281526020810184848401111561213b5761213a61204c565b5b6121468482856120fd565b509392505050565b600082601f83011261216357612162612047565b5b813561217384826020860161210c565b91505092915050565b60008060006060848603121561219557612194611d77565b5b60006121a386828701611da2565b93505060206121b486828701611da2565b925050604084013567ffffffffffffffff8111156121d5576121d4611d7c565b5b6121e18682870161214e565b9150509250925092565b600080fd5b600080fd5b60008083601f84011261220b5761220a612047565b5b8235905067ffffffffffffffff811115612228576122276121eb565b5b602083019150836020820283011115612244576122436121f0565b5b9250929050565b60008083601f84011261226157612260612047565b5b8235905067ffffffffffffffff81111561227e5761227d6121eb565b5b60208301915083602082028301111561229a576122996121f0565b5b9250929050565b600080600080604085870312156122bb576122ba611d77565b5b600085013567ffffffffffffffff8111156122d9576122d8611d7c565b5b6122e5878288016121f5565b9450945050602085013567ffffffffffffffff81111561230857612307611d7c565b5b6123148782880161224b565b925092505092959194509250565b600b811061232f57600080fd5b50565b60008135905061234181612322565b92915050565b6000806040838503121561235e5761235d611d77565b5b600061236c85828601611da2565b925050602061237d85828601612332565b9150509250929050565b61239081611fc1565b82525050565b60006020820190506123ab6000830184612387565b92915050565b600581106123be57600080fd5b50565b6000813590506123d0816123b1565b92915050565b6000602082840312156123ec576123eb611d77565b5b60006123fa848285016123c1565b91505092915050565b60008060008060006060868803121561241f5761241e611d77565b5b600061242d88828901611da2565b955050602086013567ffffffffffffffff81111561244e5761244d611d7c565b5b61245a888289016121f5565b9450945050604086013567ffffffffffffffff81111561247d5761247c611d7c565b5b6124898882890161224b565b92509250509295509295909350565b600581106124a9576124a8611df3565b5b50565b60008190506124ba82612498565b919050565b60006124ca826124ac565b9050919050565b6124da816124bf565b82525050565b600060a08201905081810360008301526124fa8188611ec1565b905061250960208301876124d1565b6125166040830186611de4565b6125236060830185611de4565b6125306080830184611f06565b9695505050505050565b7f4e487b7100000000000000000000000000000000000000000000000000000000600052602260045260246000fd5b6000600282049050600182168061258157607f821691505b6020821081036125945761259361253a565b5b50919050565b6125a381611efa565b81146125ae57600080fd5b50565b6000815190506125c08161259a565b92915050565b6000602082840312156125dc576125db611d77565b5b60006125ea848285016125b1565b91505092915050565b7f596f75206861766520746f20757365204d656c65652077616c6c657420746f2060008201527f696e766573740000000000000000000000000000000000000000000000000000602082015250565b600061264f602683611e75565b915061265a826125f3565b604082019050919050565b6000602082019050818103600083015261267e81612642565b9050919050565b7f47616d6520646f6573206e6f7420657869737400000000000000000000000000600082015250565b60006126bb601383611e75565b91506126c682612685565b602082019050919050565b600060208201905081810360008301526126ea816126ae565b9050919050565b7f4e487b7100000000000000000000000000000000000000000000000000000000600052603260045260246000fd5b7f4576656e74206973206e6f74206f70656e20666f7220696e766573746d656e74600082015250565b6000612756602083611e75565b915061276182612720565b602082019050919050565b6000602082019050818103600083015261278581612749565b9050919050565b7f47616d65206973206e6f74206f70656e20666f7220696e766573746d656e7400600082015250565b60006127c2601f83611e75565b91506127cd8261278c565b602082019050919050565b600060208201905081810360008301526127f1816127b5565b9050919050565b7f4576656e7420697320636c6f7365640000000000000000000000000000000000600082015250565b600061282e600f83611e75565b9150612839826127f8565b602082019050919050565b6000602082019050818103600083015261285d81612821565b9050919050565b7f47616d6520697320636c6f736564000000000000000000000000000000000000600082015250565b600061289a600e83611e75565b91506128a582612864565b602082019050919050565b600060208201905081810360008301526128c98161288d565b9050919050565b60006060820190506128e56000830186612387565b6128f26020830185612387565b6128ff6040830184611de4565b949350505050565b7f546f6b656e207472616e73666572206661696c65640000000000000000000000600082015250565b600061293d601583611e75565b915061294882612907565b602082019050919050565b6000602082019050818103600083015261296c81612930565b9050919050565b7f4e487b7100000000000000000000000000000000000000000000000000000000600052601160045260246000fd5b60006129ad82611d81565b91506129b883611d81565b92508282019050808211156129d0576129cf612973565b5b92915050565b60006060820190506129eb6000830186611de4565b6129f86020830185611de4565b8181036040830152612a0a8184611ec1565b9050949350505050565b600081519050612a2381611fd3565b92915050565b600060208284031215612a3f57612a3e611d77565b5b6000612a4d84828501612a14565b91505092915050565b7f574c3a20556e617574686f72697a656400000000000000000000000000000000600082015250565b6000612a8c601083611e75565b9150612a9782612a56565b602082019050919050565b60006020820190508181036000830152612abb81612a7f565b9050919050565b7f4172726179206c656e677468206d69736d617463680000000000000000000000600082015250565b6000612af8601583611e75565b9150612b0382612ac2565b602082019050919050565b60006020820190508181036000830152612b2781612aeb565b9050919050565b600081519050612b3d81611d8b565b92915050565b600060208284031215612b5957612b58611d77565b5b6000612b6784828501612b2e565b91505092915050565b7f496e73756666696369656e7420746f6b656e7320666f72207265776172647300600082015250565b6000612ba6601f83611e75565b9150612bb182612b70565b602082019050919050565b60006020820190508181036000830152612bd581612b99565b9050919050565b6000604082019050612bf16000830185612387565b612bfe6020830184611de4565b9392505050565b6000602082019050612c1a6000830184611de4565b92915050565b7f47616d65206973206e6f74206f70656e20666f7220726566756e640000000000600082015250565b6000612c56601b83611e75565b9150612c6182612c20565b602082019050919050565b60006020820190508181036000830152612c8581612c49565b9050919050565b7f496e73756666696369656e7420746f6b656e7320666f7220726566756e640000600082015250565b6000612cc2601e83611e75565b9150612ccd82612c8c565b602082019050919050565b60006020820190508181036000830152612cf181612cb5565b9050919050565b6000604082019050612d0d6000830185611de4565b612d1a6020830184611de4565b939250505056fea2646970667358221220c3f2356c9836c4e64b269ad98dee4e63712226bedf764d9e87acaf829bf4797b64736f6c634300081c0033",
  "linkReferences": {},
  "deployedLinkReferences": {}
}