{
  "_format": "hh-sol-artifact-1",
  "contractName": "EventFactory",
  "sourceName": "contracts/EventFactory.sol",
  "abi": [
    {
      "anonymous": false,
      "inputs": [
        {
          "indexed": false,
          "internalType": "uint8",
          "name": "version",
          "type": "uint8"
        }
      ],
      "name": "Initialized",
      "type": "event"
    },
    {
      "anonymous": false,
      "inputs": [
        {
          "indexed": false,
          "internalType": "address",
          "name": "creator",
          "type": "address"
        },
        {
          "indexed": false,
          "internalType": "string",
          "name": "eventId",
          "type": "string"
        },
        {
          "indexed": true,
          "internalType": "address",
          "name": "eventAddress",
          "type": "address"
        }
      ],
      "name": "NewEvent",
      "type": "event"
    },
    {
      "anonymous": false,
      "inputs": [
        {
          "indexed": true,
          "internalType": "address",
          "name": "previousOwner",
          "type": "address"
        },
        {
          "indexed": true,
          "internalType": "address",
          "name": "newOwner",
          "type": "address"
        }
      ],
      "name": "OwnershipTransferred",
      "type": "event"
    },
    {
      "anonymous": false,
      "inputs": [
        {
          "indexed": false,
          "internalType": "address",
          "name": "account",
          "type": "address"
        }
      ],
      "name": "Paused",
      "type": "event"
    },
    {
      "anonymous": false,
      "inputs": [
        {
          "indexed": false,
          "internalType": "address",
          "name": "account",
          "type": "address"
        }
      ],
      "name": "Unpaused",
      "type": "event"
    },
    {
      "inputs": [
        {
          "internalType": "string",
          "name": "_eventId",
          "type": "string"
        },
        {
          "components": [
            {
              "internalType": "uint256",
              "name": "gameID",
              "type": "uint256"
            },
            {
              "internalType": "uint256",
              "name": "season",
              "type": "uint256"
            },
            {
              "internalType": "enum IEvent.GameStatus",
              "name": "status",
              "type": "uint8"
            },
            {
              "internalType": "string",
              "name": "awayTeam",
              "type": "string"
            },
            {
              "internalType": "string",
              "name": "homeTeam",
              "type": "string"
            },
            {
              "internalType": "uint256",
              "name": "awayTeamID",
              "type": "uint256"
            },
            {
              "internalType": "uint256",
              "name": "homeTeamID",
              "type": "uint256"
            },
            {
              "internalType": "bool",
              "name": "isClosed",
              "type": "bool"
            }
          ],
          "internalType": "struct IEvent.Game[]",
          "name": "_games",
          "type": "tuple[]"
        }
      ],
      "name": "createEvent",
      "outputs": [
        {
          "internalType": "bool",
          "name": "",
          "type": "bool"
        }
      ],
      "stateMutability": "nonpayable",
      "type": "function"
    },
    {
      "inputs": [
        {
          "internalType": "string",
          "name": "",
          "type": "string"
        }
      ],
      "name": "eventIds",
      "outputs": [
        {
          "internalType": "address",
          "name": "",
          "type": "address"
        }
      ],
      "stateMutability": "view",
      "type": "function"
    },
    {
      "inputs": [],
      "name": "eventImp",
      "outputs": [
        {
          "internalType": "address",
          "name": "",
          "type": "address"
        }
      ],
      "stateMutability": "view",
      "type": "function"
    },
    {
      "inputs": [
        {
          "internalType": "address",
          "name": "",
          "type": "address"
        }
      ],
      "name": "events",
      "outputs": [
        {
          "internalType": "bool",
          "name": "",
          "type": "bool"
        }
      ],
      "stateMutability": "view",
      "type": "function"
    },
    {
      "inputs": [],
      "name": "getEventImp",
      "outputs": [
        {
          "internalType": "address",
          "name": "",
          "type": "address"
        }
      ],
      "stateMutability": "view",
      "type": "function"
    },
    {
      "inputs": [
        {
          "internalType": "address",
          "name": "_eventAddress",
          "type": "address"
        }
      ],
      "name": "hasEvent",
      "outputs": [
        {
          "internalType": "bool",
          "name": "",
          "type": "bool"
        }
      ],
      "stateMutability": "view",
      "type": "function"
    },
    {
      "inputs": [
        {
          "internalType": "address",
          "name": "_eventImp",
          "type": "address"
        },
        {
          "internalType": "address",
          "name": "_token",
          "type": "address"
        }
      ],
      "name": "initialize",
      "outputs": [],
      "stateMutability": "nonpayable",
      "type": "function"
    },
    {
      "inputs": [],
      "name": "owner",
      "outputs": [
        {
          "internalType": "address",
          "name": "",
          "type": "address"
        }
      ],
      "stateMutability": "view",
      "type": "function"
    },
    {
      "inputs": [],
      "name": "paused",
      "outputs": [
        {
          "internalType": "bool",
          "name": "",
          "type": "bool"
        }
      ],
      "stateMutability": "view",
      "type": "function"
    },
    {
      "inputs": [],
      "name": "renounceOwnership",
      "outputs": [],
      "stateMutability": "nonpayable",
      "type": "function"
    },
    {
      "inputs": [],
      "name": "token",
      "outputs": [
        {
          "internalType": "address",
          "name": "",
          "type": "address"
        }
      ],
      "stateMutability": "view",
      "type": "function"
    },
    {
      "inputs": [
        {
          "internalType": "address",
          "name": "newOwner",
          "type": "address"
        }
      ],
      "name": "transferOwnership",
      "outputs": [],
      "stateMutability": "nonpayable",
      "type": "function"
    },
    {
      "inputs": [
        {
          "internalType": "address",
          "name": "_eventImp",
          "type": "address"
        }
      ],
      "name": "updateEventImplementation",
      "outputs": [],
      "stateMutability": "nonpayable",
      "type": "function"
    },
    {
      "inputs": [
        {
          "internalType": "address",
          "name": "_walletFactory",
          "type": "address"
        }
      ],
      "name": "updateWalletFactory",
      "outputs": [],
      "stateMutability": "nonpayable",
      "type": "function"
    },
    {
      "inputs": [],
      "name": "walletFactory",
      "outputs": [
        {
          "internalType": "address",
          "name": "",
          "type": "address"
        }
      ],
      "stateMutability": "view",
      "type": "function"
    }
  ],
  "bytecode": "0x6080604052348015600f57600080fd5b506130ee8061001f6000396000f3fe608060405234801561001057600080fd5b50600436106100f55760003560e01c80638da5cb5b11610097578063c5c0369911610066578063c5c0369914610260578063cb29f4831461027e578063f2fde38b146102ae578063fc0c546a146102ca576100f5565b80638da5cb5b146101ec5780639be153c61461020a578063aceced2014610226578063bc57195f14610244576100f5565b80635c975abb116100d35780635c975abb146101765780636696f93d14610194578063715018a6146101b257806389926def146101bc576100f5565b80633194bfe1146100fa578063485cc9551461012a57806349dbf5c714610146575b600080fd5b610114600480360381019061010f9190610e11565b6102e8565b6040516101219190610e59565b60405180910390f35b610144600480360381019061013f9190610e74565b610308565b005b610160600480360381019061015b9190610ffa565b6104d2565b60405161016d9190611052565b60405180910390f35b61017e61051b565b60405161018b9190610e59565b60405180910390f35b61019c610532565b6040516101a99190611052565b60405180910390f35b6101ba61055c565b005b6101d660048036038101906101d19190610e11565b610570565b6040516101e39190610e59565b60405180910390f35b6101f46105c6565b6040516102019190611052565b60405180910390f35b610224600480360381019061021f9190610e11565b6105f0565b005b61022e61063c565b60405161023b9190611052565b60405180910390f35b61025e60048036038101906102599190610e11565b610662565b005b6102686106b6565b6040516102759190611052565b60405180910390f35b610298600480360381019061029391906112e6565b6106dc565b6040516102a59190610e59565b60405180910390f35b6102c860048036038101906102c39190610e11565b61096f565b005b6102d26109f2565b6040516102df9190611052565b60405180910390f35b609a6020528060005260406000206000915054906101000a900460ff1681565b60008060019054906101000a900460ff161590508080156103395750600160008054906101000a900460ff1660ff16105b80610366575061034830610a18565b1580156103655750600160008054906101000a900460ff1660ff16145b5b6103a5576040517f08c379a000000000000000000000000000000000000000000000000000000000815260040161039c906113e1565b60405180910390fd5b60016000806101000a81548160ff021916908360ff16021790555080156103e2576001600060016101000a81548160ff0219169083151502179055505b6103ea610a3b565b6103f2610a94565b82609760006101000a81548173ffffffffffffffffffffffffffffffffffffffff021916908373ffffffffffffffffffffffffffffffffffffffff16021790555081609860006101000a81548173ffffffffffffffffffffffffffffffffffffffff021916908373ffffffffffffffffffffffffffffffffffffffff16021790555080156104cd5760008060016101000a81548160ff0219169083151502179055507f7f26b83ff96e1f2b6a682f133852f6798a09c465da95921460cefb384740249860016040516104c49190611453565b60405180910390a15b505050565b609b818051602081018201805184825260208301602085012081835280955050505050506000915054906101000a900473ffffffffffffffffffffffffffffffffffffffff1681565b6000606560009054906101000a900460ff16905090565b6000609760009054906101000a900473ffffffffffffffffffffffffffffffffffffffff16905090565b610564610aed565b61056e6000610b6b565b565b6000609a60008373ffffffffffffffffffffffffffffffffffffffff1673ffffffffffffffffffffffffffffffffffffffff16815260200190815260200160002060009054906101000a900460ff169050919050565b6000603360009054906101000a900473ffffffffffffffffffffffffffffffffffffffff16905090565b6105f8610aed565b80609960006101000a81548173ffffffffffffffffffffffffffffffffffffffff021916908373ffffffffffffffffffffffffffffffffffffffff16021790555050565b609760009054906101000a900473ffffffffffffffffffffffffffffffffffffffff1681565b61066a610aed565b610672610c31565b80609760006101000a81548173ffffffffffffffffffffffffffffffffffffffff021916908373ffffffffffffffffffffffffffffffffffffffff16021790555050565b609960009054906101000a900473ffffffffffffffffffffffffffffffffffffffff1681565b60006106e6610aed565b600073ffffffffffffffffffffffffffffffffffffffff16609b8460405161070e91906114df565b908152602001604051809103902060009054906101000a900473ffffffffffffffffffffffffffffffffffffffff1673ffffffffffffffffffffffffffffffffffffffff1614610793576040517f08c379a000000000000000000000000000000000000000000000000000000000815260040161078a90611542565b60405180910390fd5b61079b610d4f565b8381600001819052506000816020019060048111156107bd576107bc611562565b5b908160048111156107d1576107d0611562565b5b8152505060008160400181815250506000816060018181525050600081608001901515908115158152505060003033609860009054906101000a900473ffffffffffffffffffffffffffffffffffffffff16848760405161083190610d92565b61083f959493929190611878565b604051809103906000f08015801561085b573d6000803e3d6000fd5b5090506001609a60008373ffffffffffffffffffffffffffffffffffffffff1673ffffffffffffffffffffffffffffffffffffffff16815260200190815260200160002060006101000a81548160ff02191690831515021790555080609b866040516108c791906114df565b908152602001604051809103902060006101000a81548173ffffffffffffffffffffffffffffffffffffffff021916908373ffffffffffffffffffffffffffffffffffffffff1602179055508073ffffffffffffffffffffffffffffffffffffffff167fc2ebe657fecf499e70a309995f7380e57b94c332947a8d5fa6a68fe329acd5f8338760405161095b929190611912565b60405180910390a260019250505092915050565b610977610aed565b600073ffffffffffffffffffffffffffffffffffffffff168173ffffffffffffffffffffffffffffffffffffffff16036109e6576040517f08c379a00000000000000000000000000000000000000000000000000000000081526004016109dd906119b4565b60405180910390fd5b6109ef81610b6b565b50565b609860009054906101000a900473ffffffffffffffffffffffffffffffffffffffff1681565b6000808273ffffffffffffffffffffffffffffffffffffffff163b119050919050565b600060019054906101000a900460ff16610a8a576040517f08c379a0000000000000000000000000000000000000000000000000000000008152600401610a8190611a46565b60405180910390fd5b610a92610c7a565b565b600060019054906101000a900460ff16610ae3576040517f08c379a0000000000000000000000000000000000000000000000000000000008152600401610ada90611a46565b60405180910390fd5b610aeb610cdb565b565b610af5610d47565b73ffffffffffffffffffffffffffffffffffffffff16610b136105c6565b73ffffffffffffffffffffffffffffffffffffffff1614610b69576040517f08c379a0000000000000000000000000000000000000000000000000000000008152600401610b6090611ab2565b60405180910390fd5b565b6000603360009054906101000a900473ffffffffffffffffffffffffffffffffffffffff16905081603360006101000a81548173ffffffffffffffffffffffffffffffffffffffff021916908373ffffffffffffffffffffffffffffffffffffffff1602179055508173ffffffffffffffffffffffffffffffffffffffff168173ffffffffffffffffffffffffffffffffffffffff167f8be0079c531659141344cd1fd0a4f28419497f9722a3daafe3b4186f6b6457e060405160405180910390a35050565b610c3961051b565b610c78576040517f08c379a0000000000000000000000000000000000000000000000000000000008152600401610c6f90611b1e565b60405180910390fd5b565b600060019054906101000a900460ff16610cc9576040517f08c379a0000000000000000000000000000000000000000000000000000000008152600401610cc090611a46565b60405180910390fd5b610cd9610cd4610d47565b610b6b565b565b600060019054906101000a900460ff16610d2a576040517f08c379a0000000000000000000000000000000000000000000000000000000008152600401610d2190611a46565b60405180910390fd5b6000606560006101000a81548160ff021916908315150217905550565b600033905090565b6040518060a001604052806060815260200160006004811115610d7557610d74611562565b5b815260200160008152602001600081526020016000151581525090565b61157a80611b3f83390190565b6000604051905090565b600080fd5b600080fd5b600073ffffffffffffffffffffffffffffffffffffffff82169050919050565b6000610dde82610db3565b9050919050565b610dee81610dd3565b8114610df957600080fd5b50565b600081359050610e0b81610de5565b92915050565b600060208284031215610e2757610e26610da9565b5b6000610e3584828501610dfc565b91505092915050565b60008115159050919050565b610e5381610e3e565b82525050565b6000602082019050610e6e6000830184610e4a565b92915050565b60008060408385031215610e8b57610e8a610da9565b5b6000610e9985828601610dfc565b9250506020610eaa85828601610dfc565b9150509250929050565b600080fd5b600080fd5b6000601f19601f8301169050919050565b7f4e487b7100000000000000000000000000000000000000000000000000000000600052604160045260246000fd5b610f0782610ebe565b810181811067ffffffffffffffff82111715610f2657610f25610ecf565b5b80604052505050565b6000610f39610d9f565b9050610f458282610efe565b919050565b600067ffffffffffffffff821115610f6557610f64610ecf565b5b610f6e82610ebe565b9050602081019050919050565b82818337600083830152505050565b6000610f9d610f9884610f4a565b610f2f565b905082815260208101848484011115610fb957610fb8610eb9565b5b610fc4848285610f7b565b509392505050565b600082601f830112610fe157610fe0610eb4565b5b8135610ff1848260208601610f8a565b91505092915050565b6000602082840312156110105761100f610da9565b5b600082013567ffffffffffffffff81111561102e5761102d610dae565b5b61103a84828501610fcc565b91505092915050565b61104c81610dd3565b82525050565b60006020820190506110676000830184611043565b92915050565b600067ffffffffffffffff82111561108857611087610ecf565b5b602082029050602081019050919050565b600080fd5b600080fd5b600080fd5b6000819050919050565b6110bb816110a8565b81146110c657600080fd5b50565b6000813590506110d8816110b2565b92915050565b600b81106110eb57600080fd5b50565b6000813590506110fd816110de565b92915050565b61110c81610e3e565b811461111757600080fd5b50565b60008135905061112981611103565b92915050565b600061010082840312156111465761114561109e565b5b611151610100610f2f565b90506000611161848285016110c9565b6000830152506020611175848285016110c9565b6020830152506040611189848285016110ee565b604083015250606082013567ffffffffffffffff8111156111ad576111ac6110a3565b5b6111b984828501610fcc565b606083015250608082013567ffffffffffffffff8111156111dd576111dc6110a3565b5b6111e984828501610fcc565b60808301525060a06111fd848285016110c9565b60a08301525060c0611211848285016110c9565b60c08301525060e06112258482850161111a565b60e08301525092915050565b600061124461123f8461106d565b610f2f565b9050808382526020820190506020840283018581111561126757611266611099565b5b835b818110156112ae57803567ffffffffffffffff81111561128c5761128b610eb4565b5b808601611299898261112f565b85526020850194505050602081019050611269565b5050509392505050565b600082601f8301126112cd576112cc610eb4565b5b81356112dd848260208601611231565b91505092915050565b600080604083850312156112fd576112fc610da9565b5b600083013567ffffffffffffffff81111561131b5761131a610dae565b5b61132785828601610fcc565b925050602083013567ffffffffffffffff81111561134857611347610dae565b5b611354858286016112b8565b9150509250929050565b600082825260208201905092915050565b7f496e697469616c697a61626c653a20636f6e747261637420697320616c72656160008201527f647920696e697469616c697a6564000000000000000000000000000000000000602082015250565b60006113cb602e8361135e565b91506113d68261136f565b604082019050919050565b600060208201905081810360008301526113fa816113be565b9050919050565b6000819050919050565b600060ff82169050919050565b6000819050919050565b600061143d61143861143384611401565b611418565b61140b565b9050919050565b61144d81611422565b82525050565b60006020820190506114686000830184611444565b92915050565b600081519050919050565b600081905092915050565b60005b838110156114a2578082015181840152602081019050611487565b60008484015250505050565b60006114b98261146e565b6114c38185611479565b93506114d3818560208601611484565b80840191505092915050565b60006114eb82846114ae565b915081905092915050565b7f4576656e7420616c726561647920657869737473000000000000000000000000600082015250565b600061152c60148361135e565b9150611537826114f6565b602082019050919050565b6000602082019050818103600083015261155b8161151f565b9050919050565b7f4e487b7100000000000000000000000000000000000000000000000000000000600052602160045260246000fd5b600082825260208201905092915050565b60006115ad8261146e565b6115b78185611591565b93506115c7818560208601611484565b6115d081610ebe565b840191505092915050565b600581106115ec576115eb611562565b5b50565b60008190506115fd826115db565b919050565b600061160d826115ef565b9050919050565b61161d81611602565b82525050565b61162c816110a8565b82525050565b61163b81610e3e565b82525050565b600060a083016000830151848203600086015261165e82826115a2565b91505060208301516116736020860182611614565b5060408301516116866040860182611623565b5060608301516116996060860182611623565b5060808301516116ac6080860182611632565b508091505092915050565b600081519050919050565b600082825260208201905092915050565b6000819050602082019050919050565b600b81106116f4576116f3611562565b5b50565b6000819050611705826116e3565b919050565b6000611715826116f7565b9050919050565b6117258161170a565b82525050565b6000610100830160008301516117446000860182611623565b5060208301516117576020860182611623565b50604083015161176a604086018261171c565b506060830151848203606086015261178282826115a2565b9150506080830151848203608086015261179c82826115a2565b91505060a08301516117b160a0860182611623565b5060c08301516117c460c0860182611623565b5060e08301516117d760e0860182611632565b508091505092915050565b60006117ee838361172b565b905092915050565b6000602082019050919050565b600061180e826116b7565b61181881856116c2565b93508360208202850161182a856116d3565b8060005b85811015611866578484038952815161184785826117e2565b9450611852836117f6565b925060208a0199505060018101905061182e565b50829750879550505050505092915050565b600060a08201905061188d6000830188611043565b61189a6020830187611043565b6118a76040830186611043565b81810360608301526118b98185611641565b905081810360808301526118cd8184611803565b90509695505050505050565b60006118e48261146e565b6118ee818561135e565b93506118fe818560208601611484565b61190781610ebe565b840191505092915050565b60006040820190506119276000830185611043565b818103602083015261193981846118d9565b90509392505050565b7f4f776e61626c653a206e6577206f776e657220697320746865207a65726f206160008201527f6464726573730000000000000000000000000000000000000000000000000000602082015250565b600061199e60268361135e565b91506119a982611942565b604082019050919050565b600060208201905081810360008301526119cd81611991565b9050919050565b7f496e697469616c697a61626c653a20636f6e7472616374206973206e6f74206960008201527f6e697469616c697a696e67000000000000000000000000000000000000000000602082015250565b6000611a30602b8361135e565b9150611a3b826119d4565b604082019050919050565b60006020820190508181036000830152611a5f81611a23565b9050919050565b7f4f776e61626c653a2063616c6c6572206973206e6f7420746865206f776e6572600082015250565b6000611a9c60208361135e565b9150611aa782611a66565b602082019050919050565b60006020820190508181036000830152611acb81611a8f565b9050919050565b7f5061757361626c653a206e6f7420706175736564000000000000000000000000600082015250565b6000611b0860148361135e565b9150611b1382611ad2565b602082019050919050565b60006020820190508181036000830152611b3781611afb565b905091905056fe608060405234801561001057600080fd5b5060405161157a38038061157a833981810160405281019061003291906107a9565b846000806101000a81548173ffffffffffffffffffffffffffffffffffffffff021916908373ffffffffffffffffffffffffffffffffffffffff16021790555083600160006101000a81548173ffffffffffffffffffffffffffffffffffffffff021916908373ffffffffffffffffffffffffffffffffffffffff16021790555082600260006101000a81548173ffffffffffffffffffffffffffffffffffffffff021916908373ffffffffffffffffffffffffffffffffffffffff160217905550816003600082015181600001908161010c9190610a73565b5060208201518160010160006101000a81548160ff0219169083600481111561013857610137610b45565b5b0217905550604082015181600201556060820151816003015560808201518160040160006101000a81548160ff02191690831515021790555090505060005b815181101561027957600882828151811061019557610194610b74565b5b60200260200101519080600181540180825580915050600190039060005260206000209060080201600090919091909150600082015181600001556020820151816001015560408201518160020160006101000a81548160ff0219169083600a81111561020557610204610b45565b5b0217905550606082015181600301908161021f9190610a73565b5060808201518160040190816102359190610a73565b5060a0820151816005015560c0820151816006015560e08201518160070160006101000a81548160ff02191690831515021790555050508080600101915050610177565b505050505050610ba3565b6000604051905090565b600080fd5b600080fd5b600073ffffffffffffffffffffffffffffffffffffffff82169050919050565b60006102c382610298565b9050919050565b6102d3816102b8565b81146102de57600080fd5b50565b6000815190506102f0816102ca565b92915050565b600080fd5b6000601f19601f8301169050919050565b7f4e487b7100000000000000000000000000000000000000000000000000000000600052604160045260246000fd5b610344826102fb565b810181811067ffffffffffffffff821117156103635761036261030c565b5b80604052505050565b6000610376610284565b9050610382828261033b565b919050565b600080fd5b600080fd5b600080fd5b600067ffffffffffffffff8211156103b1576103b061030c565b5b6103ba826102fb565b9050602081019050919050565b60005b838110156103e55780820151818401526020810190506103ca565b60008484015250505050565b60006104046103ff84610396565b61036c565b9050828152602081018484840111156104205761041f610391565b5b61042b8482856103c7565b509392505050565b600082601f8301126104485761044761038c565b5b81516104588482602086016103f1565b91505092915050565b6005811061046e57600080fd5b50565b60008151905061048081610461565b92915050565b6000819050919050565b61049981610486565b81146104a457600080fd5b50565b6000815190506104b681610490565b92915050565b60008115159050919050565b6104d1816104bc565b81146104dc57600080fd5b50565b6000815190506104ee816104c8565b92915050565b600060a0828403121561050a576105096102f6565b5b61051460a061036c565b9050600082015167ffffffffffffffff81111561053457610533610387565b5b61054084828501610433565b600083015250602061055484828501610471565b6020830152506040610568848285016104a7565b604083015250606061057c848285016104a7565b6060830152506080610590848285016104df565b60808301525092915050565b600067ffffffffffffffff8211156105b7576105b661030c565b5b602082029050602081019050919050565b600080fd5b600b81106105da57600080fd5b50565b6000815190506105ec816105cd565b92915050565b60006101008284031215610609576106086102f6565b5b61061461010061036c565b90506000610624848285016104a7565b6000830152506020610638848285016104a7565b602083015250604061064c848285016105dd565b604083015250606082015167ffffffffffffffff8111156106705761066f610387565b5b61067c84828501610433565b606083015250608082015167ffffffffffffffff8111156106a05761069f610387565b5b6106ac84828501610433565b60808301525060a06106c0848285016104a7565b60a08301525060c06106d4848285016104a7565b60c08301525060e06106e8848285016104df565b60e08301525092915050565b60006107076107028461059c565b61036c565b9050808382526020820190506020840283018581111561072a576107296105c8565b5b835b8181101561077157805167ffffffffffffffff81111561074f5761074e61038c565b5b80860161075c89826105f2565b8552602085019450505060208101905061072c565b5050509392505050565b600082601f8301126107905761078f61038c565b5b81516107a08482602086016106f4565b91505092915050565b600080600080600060a086880312156107c5576107c461028e565b5b60006107d3888289016102e1565b95505060206107e4888289016102e1565b94505060406107f5888289016102e1565b935050606086015167ffffffffffffffff81111561081657610815610293565b5b610822888289016104f4565b925050608086015167ffffffffffffffff81111561084357610842610293565b5b61084f8882890161077b565b9150509295509295909350565b600081519050919050565b7f4e487b7100000000000000000000000000000000000000000000000000000000600052602260045260246000fd5b600060028204905060018216806108ae57607f821691505b6020821081036108c1576108c0610867565b5b50919050565b60008190508160005260206000209050919050565b60006020601f8301049050919050565b600082821b905092915050565b6000600883026109297fffffffffffffffffffffffffffffffffffffffffffffffffffffffffffffffff826108ec565b61093386836108ec565b95508019841693508086168417925050509392505050565b6000819050919050565b600061097061096b61096684610486565b61094b565b610486565b9050919050565b6000819050919050565b61098a83610955565b61099e61099682610977565b8484546108f9565b825550505050565b600090565b6109b36109a6565b6109be818484610981565b505050565b5b818110156109e2576109d76000826109ab565b6001810190506109c4565b5050565b601f821115610a27576109f8816108c7565b610a01846108dc565b81016020851015610a10578190505b610a24610a1c856108dc565b8301826109c3565b50505b505050565b600082821c905092915050565b6000610a4a60001984600802610a2c565b1980831691505092915050565b6000610a638383610a39565b9150826002028217905092915050565b610a7c8261085c565b67ffffffffffffffff811115610a9557610a9461030c565b5b610a9f8254610896565b610aaa8282856109e6565b600060209050601f831160018114610add5760008415610acb578287015190505b610ad58582610a57565b865550610b3d565b601f198416610aeb866108c7565b60005b82811015610b1357848901518255600182019150602085019450602081019050610aee565b86831015610b305784890151610b2c601f891682610a39565b8355505b6001600288020188555050505b505050505050565b7f4e487b7100000000000000000000000000000000000000000000000000000000600052602160045260246000fd5b7f4e487b7100000000000000000000000000000000000000000000000000000000600052603260045260246000fd5b6109c880610bb26000396000f3fe6080604052600436106100595760003560e01c8063117a5b90146100775780636f7bc9be146100bb5780638da5cb5b146100f8578063e274fd2414610123578063f1386cd61461014e578063fc0c546a1461017d57610060565b3661006057005b34801561006c57600080fd5b506100756101a8565b005b34801561008357600080fd5b5061009e60048036038101906100999190610594565b6101c2565b6040516100b29897969594939291906106f2565b60405180910390f35b3480156100c757600080fd5b506100e260048036038101906100dd91906107dc565b610344565b6040516100ef9190610809565b60405180910390f35b34801561010457600080fd5b5061010d610364565b60405161011a9190610833565b60405180910390f35b34801561012f57600080fd5b5061013861038a565b6040516101459190610833565b60405180910390f35b34801561015a57600080fd5b506101636103ae565b604051610174959493929190610896565b60405180910390f35b34801561018957600080fd5b50610192610474565b60405161019f9190610833565b60405180910390f35b6101b061049a565b6101c06101bb61049c565b610533565b565b600881815481106101d257600080fd5b90600052602060002090600802016000915090508060000154908060010154908060020160009054906101000a900460ff16908060030180546102149061091f565b80601f01602080910402602001604051908101604052809291908181526020018280546102409061091f565b801561028d5780601f106102625761010080835404028352916020019161028d565b820191906000526020600020905b81548152906001019060200180831161027057829003601f168201915b5050505050908060040180546102a29061091f565b80601f01602080910402602001604051908101604052809291908181526020018280546102ce9061091f565b801561031b5780601f106102f05761010080835404028352916020019161031b565b820191906000526020600020905b8154815290600101906020018083116102fe57829003601f168201915b5050505050908060050154908060060154908060070160009054906101000a900460ff16905088565b60096020528060005260406000206000915054906101000a900460ff1681565b600160009054906101000a900473ffffffffffffffffffffffffffffffffffffffff1681565b60008054906101000a900473ffffffffffffffffffffffffffffffffffffffff1681565b60038060000180546103bf9061091f565b80601f01602080910402602001604051908101604052809291908181526020018280546103eb9061091f565b80156104385780601f1061040d57610100808354040283529160200191610438565b820191906000526020600020905b81548152906001019060200180831161041b57829003601f168201915b5050505050908060010160009054906101000a900460ff16908060020154908060030154908060040160009054906101000a900460ff16905085565b600260009054906101000a900473ffffffffffffffffffffffffffffffffffffffff1681565b565b60008060009054906101000a900473ffffffffffffffffffffffffffffffffffffffff1673ffffffffffffffffffffffffffffffffffffffff16636696f93d6040518163ffffffff1660e01b8152600401602060405180830381865afa15801561050a573d6000803e3d6000fd5b505050506040513d601f19601f8201168201806040525081019061052e9190610965565b905090565b3660008037600080366000845af43d6000803e8060008114610554573d6000f35b3d6000fd5b600080fd5b6000819050919050565b6105718161055e565b811461057c57600080fd5b50565b60008135905061058e81610568565b92915050565b6000602082840312156105aa576105a9610559565b5b60006105b88482850161057f565b91505092915050565b6105ca8161055e565b82525050565b7f4e487b7100000000000000000000000000000000000000000000000000000000600052602160045260246000fd5b600b81106106105761060f6105d0565b5b50565b6000819050610621826105ff565b919050565b600061063182610613565b9050919050565b61064181610626565b82525050565b600081519050919050565b600082825260208201905092915050565b60005b83811015610681578082015181840152602081019050610666565b60008484015250505050565b6000601f19601f8301169050919050565b60006106a982610647565b6106b38185610652565b93506106c3818560208601610663565b6106cc8161068d565b840191505092915050565b60008115159050919050565b6106ec816106d7565b82525050565b600061010082019050610708600083018b6105c1565b610715602083018a6105c1565b6107226040830189610638565b8181036060830152610734818861069e565b90508181036080830152610748818761069e565b905061075760a08301866105c1565b61076460c08301856105c1565b61077160e08301846106e3565b9998505050505050505050565b600073ffffffffffffffffffffffffffffffffffffffff82169050919050565b60006107a98261077e565b9050919050565b6107b98161079e565b81146107c457600080fd5b50565b6000813590506107d6816107b0565b92915050565b6000602082840312156107f2576107f1610559565b5b6000610800848285016107c7565b91505092915050565b600060208201905061081e60008301846106e3565b92915050565b61082d8161079e565b82525050565b60006020820190506108486000830184610824565b92915050565b6005811061085f5761085e6105d0565b5b50565b60008190506108708261084e565b919050565b600061088082610862565b9050919050565b61089081610875565b82525050565b600060a08201905081810360008301526108b0818861069e565b90506108bf6020830187610887565b6108cc60408301866105c1565b6108d960608301856105c1565b6108e660808301846106e3565b9695505050505050565b7f4e487b7100000000000000000000000000000000000000000000000000000000600052602260045260246000fd5b6000600282049050600182168061093757607f821691505b60208210810361094a576109496108f0565b5b50919050565b60008151905061095f816107b0565b92915050565b60006020828403121561097b5761097a610559565b5b600061098984828501610950565b9150509291505056fea26469706673582212206c51578319ee4f732ec1932a1af787335794cab879121307bf55ffca1a7f2b1364736f6c634300081c0033a2646970667358221220b4f5c7857d5a9de6ecd059d25fbbbd745f90e21eb5dfe793eab52be7ad08a4d864736f6c634300081c0033",
  "linkReferences": {},
  "deployedLinkReferences": {}
}