{
  "_format": "hh-sol-artifact-1",
  "contractName": "WalletFactory",
  "sourceName": "contracts/WalletFactory.sol",
  "abi": [
    {
      "anonymous": false,
      "inputs": [
        {
          "indexed": false,
          "internalType": "uint8",
          "name": "version",
          "type": "uint8"
        }
      ],
      "name": "Initialized",
      "type": "event"
    },
    {
      "anonymous": false,
      "inputs": [
        {
          "indexed": false,
          "internalType": "address",
          "name": "metaWallet",
          "type": "address"
        },
        {
          "indexed": true,
          "internalType": "address",
          "name": "meleeWallet",
          "type": "address"
        }
      ],
      "name": "NewWallet",
      "type": "event"
    },
    {
      "anonymous": false,
      "inputs": [
        {
          "indexed": true,
          "internalType": "address",
          "name": "previousOwner",
          "type": "address"
        },
        {
          "indexed": true,
          "internalType": "address",
          "name": "newOwner",
          "type": "address"
        }
      ],
      "name": "OwnershipTransferred",
      "type": "event"
    },
    {
      "anonymous": false,
      "inputs": [
        {
          "indexed": false,
          "internalType": "address",
          "name": "account",
          "type": "address"
        }
      ],
      "name": "Paused",
      "type": "event"
    },
    {
      "anonymous": false,
      "inputs": [
        {
          "indexed": false,
          "internalType": "address",
          "name": "account",
          "type": "address"
        }
      ],
      "name": "Unpaused",
      "type": "event"
    },
    {
      "inputs": [],
      "name": "createWallet",
      "outputs": [
        {
          "internalType": "bool",
          "name": "",
          "type": "bool"
        }
      ],
      "stateMutability": "nonpayable",
      "type": "function"
    },
    {
      "inputs": [],
      "name": "eventFactory",
      "outputs": [
        {
          "internalType": "address",
          "name": "",
          "type": "address"
        }
      ],
      "stateMutability": "view",
      "type": "function"
    },
    {
      "inputs": [],
      "name": "getEventFactory",
      "outputs": [
        {
          "internalType": "address",
          "name": "",
          "type": "address"
        }
      ],
      "stateMutability": "view",
      "type": "function"
    },
    {
      "inputs": [
        {
          "internalType": "address",
          "name": "_address",
          "type": "address"
        }
      ],
      "name": "hasMeleeWallet",
      "outputs": [
        {
          "internalType": "bool",
          "name": "",
          "type": "bool"
        }
      ],
      "stateMutability": "view",
      "type": "function"
    },
    {
      "inputs": [
        {
          "internalType": "address",
          "name": "_walletImp",
          "type": "address"
        },
        {
          "internalType": "address",
          "name": "_token",
          "type": "address"
        }
      ],
      "name": "initialize",
      "outputs": [],
      "stateMutability": "nonpayable",
      "type": "function"
    },
    {
      "inputs": [
        {
          "internalType": "address",
          "name": "",
          "type": "address"
        }
      ],
      "name": "meleeWallets",
      "outputs": [
        {
          "internalType": "address",
          "name": "",
          "type": "address"
        }
      ],
      "stateMutability": "view",
      "type": "function"
    },
    {
      "inputs": [
        {
          "internalType": "address",
          "name": "",
          "type": "address"
        }
      ],
      "name": "metaWallets",
      "outputs": [
        {
          "internalType": "address",
          "name": "",
          "type": "address"
        }
      ],
      "stateMutability": "view",
      "type": "function"
    },
    {
      "inputs": [],
      "name": "owner",
      "outputs": [
        {
          "internalType": "address",
          "name": "",
          "type": "address"
        }
      ],
      "stateMutability": "view",
      "type": "function"
    },
    {
      "inputs": [],
      "name": "paused",
      "outputs": [
        {
          "internalType": "bool",
          "name": "",
          "type": "bool"
        }
      ],
      "stateMutability": "view",
      "type": "function"
    },
    {
      "inputs": [],
      "name": "renounceOwnership",
      "outputs": [],
      "stateMutability": "nonpayable",
      "type": "function"
    },
    {
      "inputs": [],
      "name": "token",
      "outputs": [
        {
          "internalType": "address",
          "name": "",
          "type": "address"
        }
      ],
      "stateMutability": "view",
      "type": "function"
    },
    {
      "inputs": [
        {
          "internalType": "address",
          "name": "newOwner",
          "type": "address"
        }
      ],
      "name": "transferOwnership",
      "outputs": [],
      "stateMutability": "nonpayable",
      "type": "function"
    },
    {
      "inputs": [
        {
          "internalType": "address",
          "name": "_eventFactory",
          "type": "address"
        }
      ],
      "name": "updateEventFactory",
      "outputs": [],
      "stateMutability": "nonpayable",
      "type": "function"
    },
    {
      "inputs": [
        {
          "internalType": "address",
          "name": "_walletImp",
          "type": "address"
        }
      ],
      "name": "updateWalletImplementation",
      "outputs": [],
      "stateMutability": "nonpayable",
      "type": "function"
    },
    {
      "inputs": [],
      "name": "walletImp",
      "outputs": [
        {
          "internalType": "address",
          "name": "",
          "type": "address"
        }
      ],
      "stateMutability": "view",
      "type": "function"
    }
  ],
  "bytecode": "0x6080604052348015600f57600080fd5b506119ca8061001f6000396000f3fe608060405234801561001057600080fd5b50600436106100f55760003560e01c8063715018a611610097578063e563c04211610066578063e563c0421461023c578063e73869221461026c578063f2fde38b1461029c578063fc0c546a146102b8576100f5565b8063715018a6146101c85780638da5cb5b146101d2578063ceaf026b146101f0578063e308242114610220576100f5565b8063485cc955116100d3578063485cc9551461015457806359ba0f4b146101705780635c975abb1461018c5780636fdbd3f6146101aa576100f5565b8063025626ff146100fa57806311ebbf241461011857806322ebb47714610136575b600080fd5b6101026102d6565b60405161010f9190610df6565b60405180910390f35b610120610300565b60405161012d9190610e2c565b60405180910390f35b61013e61057f565b60405161014b9190610df6565b60405180910390f35b61016e60048036038101906101699190610e78565b6105a5565b005b61018a60048036038101906101859190610eb8565b61076f565b005b6101946107c3565b6040516101a19190610e2c565b60405180910390f35b6101b26107da565b6040516101bf9190610df6565b60405180910390f35b6101d0610800565b005b6101da610814565b6040516101e79190610df6565b60405180910390f35b61020a60048036038101906102059190610eb8565b61083e565b6040516102179190610e2c565b60405180910390f35b61023a60048036038101906102359190610eb8565b610916565b005b61025660048036038101906102519190610eb8565b610962565b6040516102639190610df6565b60405180910390f35b61028660048036038101906102819190610eb8565b610995565b6040516102939190610df6565b60405180910390f35b6102b660048036038101906102b19190610eb8565b6109c8565b005b6102c0610a4b565b6040516102cd9190610df6565b60405180910390f35b6000609960009054906101000a900473ffffffffffffffffffffffffffffffffffffffff16905090565b60008073ffffffffffffffffffffffffffffffffffffffff16609a60003373ffffffffffffffffffffffffffffffffffffffff1673ffffffffffffffffffffffffffffffffffffffff16815260200190815260200160002060009054906101000a900473ffffffffffffffffffffffffffffffffffffffff1673ffffffffffffffffffffffffffffffffffffffff16146103cf576040517f08c379a00000000000000000000000000000000000000000000000000000000081526004016103c690610f42565b60405180910390fd5b60003033609860009054906101000a900473ffffffffffffffffffffffffffffffffffffffff1660405161040290610da8565b61040e93929190610f62565b604051809103906000f08015801561042a573d6000803e3d6000fd5b50905080609a60003373ffffffffffffffffffffffffffffffffffffffff1673ffffffffffffffffffffffffffffffffffffffff16815260200190815260200160002060006101000a81548173ffffffffffffffffffffffffffffffffffffffff021916908373ffffffffffffffffffffffffffffffffffffffff16021790555033609b60008373ffffffffffffffffffffffffffffffffffffffff1673ffffffffffffffffffffffffffffffffffffffff16815260200190815260200160002060006101000a81548173ffffffffffffffffffffffffffffffffffffffff021916908373ffffffffffffffffffffffffffffffffffffffff1602179055508073ffffffffffffffffffffffffffffffffffffffff167fad99b4cdeb342f8df51bd1f7c20113a98559ff13b06d1c77cc051964d7489d2b3360405161056f9190610df6565b60405180910390a2600191505090565b609760009054906101000a900473ffffffffffffffffffffffffffffffffffffffff1681565b60008060019054906101000a900460ff161590508080156105d65750600160008054906101000a900460ff1660ff16105b8061060357506105e530610a71565b1580156106025750600160008054906101000a900460ff1660ff16145b5b610642576040517f08c379a00000000000000000000000000000000000000000000000000000000081526004016106399061100b565b60405180910390fd5b60016000806101000a81548160ff021916908360ff160217905550801561067f576001600060016101000a81548160ff0219169083151502179055505b610687610a94565b61068f610aed565b82609760006101000a81548173ffffffffffffffffffffffffffffffffffffffff021916908373ffffffffffffffffffffffffffffffffffffffff16021790555081609860006101000a81548173ffffffffffffffffffffffffffffffffffffffff021916908373ffffffffffffffffffffffffffffffffffffffff160217905550801561076a5760008060016101000a81548160ff0219169083151502179055507f7f26b83ff96e1f2b6a682f133852f6798a09c465da95921460cefb38474024986001604051610761919061107d565b60405180910390a15b505050565b610777610b46565b61077f610bc4565b80609760006101000a81548173ffffffffffffffffffffffffffffffffffffffff021916908373ffffffffffffffffffffffffffffffffffffffff16021790555050565b6000606560009054906101000a900460ff16905090565b609960009054906101000a900473ffffffffffffffffffffffffffffffffffffffff1681565b610808610b46565b6108126000610c0d565b565b6000603360009054906101000a900473ffffffffffffffffffffffffffffffffffffffff16905090565b60008073ffffffffffffffffffffffffffffffffffffffff16609b60008473ffffffffffffffffffffffffffffffffffffffff1673ffffffffffffffffffffffffffffffffffffffff16815260200190815260200160002060009054906101000a900473ffffffffffffffffffffffffffffffffffffffff1673ffffffffffffffffffffffffffffffffffffffff160361090d576040517f08c379a0000000000000000000000000000000000000000000000000000000008152600401610904906110e4565b60405180910390fd5b60019050919050565b61091e610b46565b80609960006101000a81548173ffffffffffffffffffffffffffffffffffffffff021916908373ffffffffffffffffffffffffffffffffffffffff16021790555050565b609b6020528060005260406000206000915054906101000a900473ffffffffffffffffffffffffffffffffffffffff1681565b609a6020528060005260406000206000915054906101000a900473ffffffffffffffffffffffffffffffffffffffff1681565b6109d0610b46565b600073ffffffffffffffffffffffffffffffffffffffff168173ffffffffffffffffffffffffffffffffffffffff1603610a3f576040517f08c379a0000000000000000000000000000000000000000000000000000000008152600401610a3690611176565b60405180910390fd5b610a4881610c0d565b50565b609860009054906101000a900473ffffffffffffffffffffffffffffffffffffffff1681565b6000808273ffffffffffffffffffffffffffffffffffffffff163b119050919050565b600060019054906101000a900460ff16610ae3576040517f08c379a0000000000000000000000000000000000000000000000000000000008152600401610ada90611208565b60405180910390fd5b610aeb610cd3565b565b600060019054906101000a900460ff16610b3c576040517f08c379a0000000000000000000000000000000000000000000000000000000008152600401610b3390611208565b60405180910390fd5b610b44610d34565b565b610b4e610da0565b73ffffffffffffffffffffffffffffffffffffffff16610b6c610814565b73ffffffffffffffffffffffffffffffffffffffff1614610bc2576040517f08c379a0000000000000000000000000000000000000000000000000000000008152600401610bb990611274565b60405180910390fd5b565b610bcc6107c3565b610c0b576040517f08c379a0000000000000000000000000000000000000000000000000000000008152600401610c02906112e0565b60405180910390fd5b565b6000603360009054906101000a900473ffffffffffffffffffffffffffffffffffffffff16905081603360006101000a81548173ffffffffffffffffffffffffffffffffffffffff021916908373ffffffffffffffffffffffffffffffffffffffff1602179055508173ffffffffffffffffffffffffffffffffffffffff168173ffffffffffffffffffffffffffffffffffffffff167f8be0079c531659141344cd1fd0a4f28419497f9722a3daafe3b4186f6b6457e060405160405180910390a35050565b600060019054906101000a900460ff16610d22576040517f08c379a0000000000000000000000000000000000000000000000000000000008152600401610d1990611208565b60405180910390fd5b610d32610d2d610da0565b610c0d565b565b600060019054906101000a900460ff16610d83576040517f08c379a0000000000000000000000000000000000000000000000000000000008152600401610d7a90611208565b60405180910390fd5b6000606560006101000a81548160ff021916908315150217905550565b600033905090565b6106948061130183390190565b600073ffffffffffffffffffffffffffffffffffffffff82169050919050565b6000610de082610db5565b9050919050565b610df081610dd5565b82525050565b6000602082019050610e0b6000830184610de7565b92915050565b60008115159050919050565b610e2681610e11565b82525050565b6000602082019050610e416000830184610e1d565b92915050565b600080fd5b610e5581610dd5565b8114610e6057600080fd5b50565b600081359050610e7281610e4c565b92915050565b60008060408385031215610e8f57610e8e610e47565b5b6000610e9d85828601610e63565b9250506020610eae85828601610e63565b9150509250929050565b600060208284031215610ece57610ecd610e47565b5b6000610edc84828501610e63565b91505092915050565b600082825260208201905092915050565b7f57616c6c657420616c7265616479206578697374730000000000000000000000600082015250565b6000610f2c601583610ee5565b9150610f3782610ef6565b602082019050919050565b60006020820190508181036000830152610f5b81610f1f565b9050919050565b6000606082019050610f776000830186610de7565b610f846020830185610de7565b610f916040830184610de7565b949350505050565b7f496e697469616c697a61626c653a20636f6e747261637420697320616c72656160008201527f647920696e697469616c697a6564000000000000000000000000000000000000602082015250565b6000610ff5602e83610ee5565b915061100082610f99565b604082019050919050565b6000602082019050818103600083015261102481610fe8565b9050919050565b6000819050919050565b600060ff82169050919050565b6000819050919050565b600061106761106261105d8461102b565b611042565b611035565b9050919050565b6110778161104c565b82525050565b6000602082019050611092600083018461106e565b92915050565b7f57616c6c6574206e6f7420666f756e6400000000000000000000000000000000600082015250565b60006110ce601083610ee5565b91506110d982611098565b602082019050919050565b600060208201905081810360008301526110fd816110c1565b9050919050565b7f4f776e61626c653a206e6577206f776e657220697320746865207a65726f206160008201527f6464726573730000000000000000000000000000000000000000000000000000602082015250565b6000611160602683610ee5565b915061116b82611104565b604082019050919050565b6000602082019050818103600083015261118f81611153565b9050919050565b7f496e697469616c697a61626c653a20636f6e7472616374206973206e6f74206960008201527f6e697469616c697a696e67000000000000000000000000000000000000000000602082015250565b60006111f2602b83610ee5565b91506111fd82611196565b604082019050919050565b60006020820190508181036000830152611221816111e5565b9050919050565b7f4f776e61626c653a2063616c6c6572206973206e6f7420746865206f776e6572600082015250565b600061125e602083610ee5565b915061126982611228565b602082019050919050565b6000602082019050818103600083015261128d81611251565b9050919050565b7f5061757361626c653a206e6f7420706175736564000000000000000000000000600082015250565b60006112ca601483610ee5565b91506112d582611294565b602082019050919050565b600060208201905081810360008301526112f9816112bd565b905091905056fe608060405234801561001057600080fd5b506040516106943803806106948339818101604052810190610032919061015f565b826000806101000a81548173ffffffffffffffffffffffffffffffffffffffff021916908373ffffffffffffffffffffffffffffffffffffffff16021790555081600160006101000a81548173ffffffffffffffffffffffffffffffffffffffff021916908373ffffffffffffffffffffffffffffffffffffffff16021790555080600260006101000a81548173ffffffffffffffffffffffffffffffffffffffff021916908373ffffffffffffffffffffffffffffffffffffffff1602179055505050506101b2565b600080fd5b600073ffffffffffffffffffffffffffffffffffffffff82169050919050565b600061012c82610101565b9050919050565b61013c81610121565b811461014757600080fd5b50565b60008151905061015981610133565b92915050565b600080600060608486031215610178576101776100fc565b5b60006101868682870161014a565b93505060206101978682870161014a565b92505060406101a88682870161014a565b9150509250925092565b6104d3806101c16000396000f3fe6080604052600436106100385760003560e01c80638da5cb5b14610176578063d0ed5c2f146101a1578063fc0c546a146101cc576100cf565b366100cf57600160009054906101000a900473ffffffffffffffffffffffffffffffffffffffff1673ffffffffffffffffffffffffffffffffffffffff163373ffffffffffffffffffffffffffffffffffffffff16146100cd576040517f08c379a00000000000000000000000000000000000000000000000000000000081526004016100c4906103c3565b60405180910390fd5b005b3480156100db57600080fd5b50600160009054906101000a900473ffffffffffffffffffffffffffffffffffffffff1673ffffffffffffffffffffffffffffffffffffffff163373ffffffffffffffffffffffffffffffffffffffff161461016c576040517f08c379a0000000000000000000000000000000000000000000000000000000008152600401610163906103c3565b60405180910390fd5b6101746101f7565b005b34801561018257600080fd5b5061018b610211565b6040516101989190610424565b60405180910390f35b3480156101ad57600080fd5b506101b6610237565b6040516101c39190610424565b60405180910390f35b3480156101d857600080fd5b506101e161025b565b6040516101ee9190610424565b60405180910390f35b6101ff610281565b61020f61020a610283565b61031a565b565b600160009054906101000a900473ffffffffffffffffffffffffffffffffffffffff1681565b60008054906101000a900473ffffffffffffffffffffffffffffffffffffffff1681565b600260009054906101000a900473ffffffffffffffffffffffffffffffffffffffff1681565b565b60008060009054906101000a900473ffffffffffffffffffffffffffffffffffffffff1673ffffffffffffffffffffffffffffffffffffffff166322ebb4776040518163ffffffff1660e01b8152600401602060405180830381865afa1580156102f1573d6000803e3d6000fd5b505050506040513d601f19601f820116820180604052508101906103159190610470565b905090565b3660008037600080366000845af43d6000803e806000811461033b573d6000f35b3d6000fd5b600082825260208201905092915050565b7f4f6e6c79206f776e65722063616e2063616c6c20746869732066756e6374696f60008201527f6e00000000000000000000000000000000000000000000000000000000000000602082015250565b60006103ad602183610340565b91506103b882610351565b604082019050919050565b600060208201905081810360008301526103dc816103a0565b9050919050565b600073ffffffffffffffffffffffffffffffffffffffff82169050919050565b600061040e826103e3565b9050919050565b61041e81610403565b82525050565b60006020820190506104396000830184610415565b92915050565b600080fd5b61044d81610403565b811461045857600080fd5b50565b60008151905061046a81610444565b92915050565b6000602082840312156104865761048561043f565b5b60006104948482850161045b565b9150509291505056fea26469706673582212208aabec4c14677f3beae378d5a75d2464233ed05c0d7aadec4a337dae207ed1c064736f6c634300081c0033a2646970667358221220b253b1a09506c7948ccc2752f91e152fab7f44133f8a4a42cd9162afe34a4fd564736f6c634300081c0033",
  "linkReferences": {},
  "deployedLinkReferences": {}
}